{
  "_format": "hh-sol-artifact-1",
  "contractName": "NovusysAccount",
  "sourceName": "contracts/NovusysAccount.sol",
  "abi": [
    {
      "inputs": [
        {
          "internalType": "contract IEntryPoint",
          "name": "anEntryPoint",
          "type": "address"
        }
      ],
      "stateMutability": "nonpayable",
      "type": "constructor"
    },
    {
      "anonymous": false,
      "inputs": [
        {
          "indexed": true,
          "internalType": "address",
          "name": "voter",
          "type": "address"
        }
      ],
      "name": "AddVoterProposed",
      "type": "event"
    },
    {
      "anonymous": false,
      "inputs": [
        {
          "indexed": true,
          "internalType": "address",
          "name": "voter",
          "type": "address"
        }
      ],
      "name": "AddVoterVetoed",
      "type": "event"
    },
    {
      "anonymous": false,
      "inputs": [
        {
          "indexed": false,
          "internalType": "address",
          "name": "previousAdmin",
          "type": "address"
        },
        {
          "indexed": false,
          "internalType": "address",
          "name": "newAdmin",
          "type": "address"
        }
      ],
      "name": "AdminChanged",
      "type": "event"
    },
    {
      "anonymous": false,
      "inputs": [
        {
          "indexed": true,
          "internalType": "address",
          "name": "beacon",
          "type": "address"
        }
      ],
      "name": "BeaconUpgraded",
      "type": "event"
    },
    {
      "anonymous": false,
      "inputs": [
        {
          "indexed": false,
          "internalType": "uint8",
          "name": "version",
          "type": "uint8"
        }
      ],
      "name": "Initialized",
      "type": "event"
    },
    {
      "anonymous": false,
      "inputs": [],
      "name": "Lockdown",
      "type": "event"
    },
    {
      "anonymous": false,
      "inputs": [
        {
          "indexed": true,
          "internalType": "address",
          "name": "lockdownAddress",
          "type": "address"
        }
      ],
      "name": "LockdownAddressSet",
      "type": "event"
    },
    {
      "anonymous": false,
      "inputs": [],
      "name": "LockdownLifted",
      "type": "event"
    },
    {
      "anonymous": false,
      "inputs": [
        {
          "indexed": true,
          "internalType": "address",
          "name": "recoveryAddress",
          "type": "address"
        }
      ],
      "name": "RecoveryExecuted",
      "type": "event"
    },
    {
      "anonymous": false,
      "inputs": [
        {
          "indexed": true,
          "internalType": "address",
          "name": "recoveryAddress",
          "type": "address"
        }
      ],
      "name": "RecoveryProposed",
      "type": "event"
    },
    {
      "anonymous": false,
      "inputs": [
        {
          "indexed": true,
          "internalType": "address",
          "name": "voter",
          "type": "address"
        }
      ],
      "name": "RecoveryVoted",
      "type": "event"
    },
    {
      "anonymous": false,
      "inputs": [
        {
          "indexed": true,
          "internalType": "address",
          "name": "voter",
          "type": "address"
        }
      ],
      "name": "RemoveVoterProposed",
      "type": "event"
    },
    {
      "anonymous": false,
      "inputs": [
        {
          "indexed": true,
          "internalType": "address",
          "name": "voter",
          "type": "address"
        }
      ],
      "name": "RemoveVoterVetoed",
      "type": "event"
    },
    {
      "anonymous": false,
      "inputs": [
        {
          "indexed": true,
          "internalType": "address",
          "name": "savingsAccount",
          "type": "address"
        },
        {
          "indexed": false,
          "internalType": "uint256",
          "name": "savingsThreshold",
          "type": "uint256"
        },
        {
          "indexed": false,
          "internalType": "uint8",
          "name": "savingsPercentage",
          "type": "uint8"
        }
      ],
      "name": "SavingsAccountSet",
      "type": "event"
    },
    {
      "anonymous": false,
      "inputs": [
        {
          "indexed": true,
          "internalType": "contract IEntryPoint",
          "name": "entryPoint",
          "type": "address"
        },
        {
          "indexed": true,
          "internalType": "address",
          "name": "owner",
          "type": "address"
        }
      ],
      "name": "SimpleAccountInitialized",
      "type": "event"
    },
    {
      "anonymous": false,
      "inputs": [
        {
          "indexed": true,
          "internalType": "address",
          "name": "implementation",
          "type": "address"
        }
      ],
      "name": "Upgraded",
      "type": "event"
    },
    {
      "anonymous": false,
      "inputs": [
        {
          "indexed": true,
          "internalType": "address",
          "name": "voter",
          "type": "address"
        }
      ],
      "name": "VoterAdded",
      "type": "event"
    },
    {
      "anonymous": false,
      "inputs": [
        {
          "indexed": true,
          "internalType": "address",
          "name": "voter",
          "type": "address"
        }
      ],
      "name": "VoterRemoved",
      "type": "event"
    },
    {
      "anonymous": false,
      "inputs": [
        {
          "indexed": true,
          "internalType": "address[]",
          "name": "voters",
          "type": "address[]"
        }
      ],
      "name": "VotersInitialized",
      "type": "event"
    },
    {
      "inputs": [],
      "name": "addDeposit",
      "outputs": [],
      "stateMutability": "payable",
      "type": "function"
    },
    {
      "inputs": [
        {
          "internalType": "address",
          "name": "voter",
          "type": "address"
        }
      ],
      "name": "addRecoveryVoter",
      "outputs": [],
      "stateMutability": "nonpayable",
      "type": "function"
    },
    {
      "inputs": [],
      "name": "entryPoint",
      "outputs": [
        {
          "internalType": "contract IEntryPoint",
          "name": "",
          "type": "address"
        }
      ],
      "stateMutability": "view",
      "type": "function"
    },
    {
      "inputs": [
        {
          "internalType": "address",
          "name": "dest",
          "type": "address"
        },
        {
          "internalType": "uint256",
          "name": "value",
          "type": "uint256"
        },
        {
          "internalType": "bytes",
          "name": "func",
          "type": "bytes"
        }
      ],
      "name": "execute",
      "outputs": [],
      "stateMutability": "nonpayable",
      "type": "function"
    },
    {
      "inputs": [
        {
          "internalType": "address[]",
          "name": "dest",
          "type": "address[]"
        },
        {
          "internalType": "bytes[]",
          "name": "func",
          "type": "bytes[]"
        }
      ],
      "name": "executeBatch",
      "outputs": [],
      "stateMutability": "nonpayable",
      "type": "function"
    },
    {
      "inputs": [],
      "name": "getDeposit",
      "outputs": [
        {
          "internalType": "uint256",
          "name": "",
          "type": "uint256"
        }
      ],
      "stateMutability": "view",
      "type": "function"
    },
    {
      "inputs": [],
      "name": "globalLockdownAddress",
      "outputs": [
        {
          "internalType": "address",
          "name": "",
          "type": "address"
        }
      ],
      "stateMutability": "view",
      "type": "function"
    },
    {
      "inputs": [
        {
          "internalType": "address",
          "name": "anOwner",
          "type": "address"
        }
      ],
      "name": "initialize",
      "outputs": [],
      "stateMutability": "nonpayable",
      "type": "function"
    },
    {
      "inputs": [
        {
          "internalType": "address[]",
          "name": "voters",
          "type": "address[]"
        }
      ],
      "name": "initializeVoters",
      "outputs": [],
      "stateMutability": "nonpayable",
      "type": "function"
    },
    {
      "inputs": [],
      "name": "liftLockdown",
      "outputs": [],
      "stateMutability": "nonpayable",
      "type": "function"
    },
    {
      "inputs": [],
      "name": "lockdown",
      "outputs": [
        {
          "internalType": "bool",
          "name": "",
          "type": "bool"
        }
      ],
      "stateMutability": "view",
      "type": "function"
    },
    {
      "inputs": [],
      "name": "lockdownWallet",
      "outputs": [],
      "stateMutability": "nonpayable",
      "type": "function"
    },
    {
      "inputs": [],
      "name": "nonce",
      "outputs": [
        {
          "internalType": "uint256",
          "name": "",
          "type": "uint256"
        }
      ],
      "stateMutability": "view",
      "type": "function"
    },
    {
      "inputs": [],
      "name": "owner",
      "outputs": [
        {
          "internalType": "address",
          "name": "",
          "type": "address"
        }
      ],
      "stateMutability": "view",
      "type": "function"
    },
    {
      "inputs": [],
      "name": "proxiableUUID",
      "outputs": [
        {
          "internalType": "bytes32",
          "name": "",
          "type": "bytes32"
        }
      ],
      "stateMutability": "view",
      "type": "function"
    },
    {
      "inputs": [
        {
          "internalType": "address",
          "name": "recoveryAddress",
          "type": "address"
        }
      ],
      "name": "recoverWallet",
      "outputs": [],
      "stateMutability": "nonpayable",
      "type": "function"
    },
    {
      "inputs": [
        {
          "internalType": "address",
          "name": "voter",
          "type": "address"
        }
      ],
      "name": "removeRecoveryVoter",
      "outputs": [],
      "stateMutability": "nonpayable",
      "type": "function"
    },
    {
      "inputs": [
        {
          "internalType": "address",
          "name": "lockdownAddress",
          "type": "address"
        }
      ],
      "name": "setGlobalLockdownAddress",
      "outputs": [],
      "stateMutability": "nonpayable",
      "type": "function"
    },
    {
      "inputs": [
        {
          "internalType": "address payable",
          "name": "_savingsAccount",
          "type": "address"
        },
        {
          "internalType": "uint256",
          "name": "_savingsThreshold",
          "type": "uint256"
        },
        {
          "internalType": "uint8",
          "name": "_savingsPercentage",
          "type": "uint8"
        }
      ],
      "name": "setSavingsAccount",
      "outputs": [],
      "stateMutability": "nonpayable",
      "type": "function"
    },
    {
      "inputs": [
        {
          "internalType": "address",
          "name": "newImplementation",
          "type": "address"
        }
      ],
      "name": "upgradeTo",
      "outputs": [],
      "stateMutability": "nonpayable",
      "type": "function"
    },
    {
      "inputs": [
        {
          "internalType": "address",
          "name": "newImplementation",
          "type": "address"
        },
        {
          "internalType": "bytes",
          "name": "data",
          "type": "bytes"
        }
      ],
      "name": "upgradeToAndCall",
      "outputs": [],
      "stateMutability": "payable",
      "type": "function"
    },
    {
      "inputs": [
        {
          "components": [
            {
              "internalType": "address",
              "name": "sender",
              "type": "address"
            },
            {
              "internalType": "uint256",
              "name": "nonce",
              "type": "uint256"
            },
            {
              "internalType": "bytes",
              "name": "initCode",
              "type": "bytes"
            },
            {
              "internalType": "bytes",
              "name": "callData",
              "type": "bytes"
            },
            {
              "internalType": "uint256",
              "name": "callGasLimit",
              "type": "uint256"
            },
            {
              "internalType": "uint256",
              "name": "verificationGasLimit",
              "type": "uint256"
            },
            {
              "internalType": "uint256",
              "name": "preVerificationGas",
              "type": "uint256"
            },
            {
              "internalType": "uint256",
              "name": "maxFeePerGas",
              "type": "uint256"
            },
            {
              "internalType": "uint256",
              "name": "maxPriorityFeePerGas",
              "type": "uint256"
            },
            {
              "internalType": "bytes",
              "name": "paymasterAndData",
              "type": "bytes"
            },
            {
              "internalType": "bytes",
              "name": "signature",
              "type": "bytes"
            }
          ],
          "internalType": "struct UserOperation",
          "name": "userOp",
          "type": "tuple"
        },
        {
          "internalType": "bytes32",
          "name": "userOpHash",
          "type": "bytes32"
        },
        {
          "internalType": "uint256",
          "name": "missingAccountFunds",
          "type": "uint256"
        }
      ],
      "name": "validateUserOp",
      "outputs": [
        {
          "internalType": "uint256",
          "name": "validationData",
          "type": "uint256"
        }
      ],
      "stateMutability": "nonpayable",
      "type": "function"
    },
    {
      "inputs": [
        {
          "internalType": "address",
          "name": "voter",
          "type": "address"
        }
      ],
      "name": "vetoAddition",
      "outputs": [],
      "stateMutability": "nonpayable",
      "type": "function"
    },
    {
      "inputs": [
        {
          "internalType": "address",
          "name": "voter",
          "type": "address"
        }
      ],
      "name": "vetoRemoval",
      "outputs": [],
      "stateMutability": "nonpayable",
      "type": "function"
    },
    {
      "inputs": [
        {
          "internalType": "address",
          "name": "voter",
          "type": "address"
        }
      ],
      "name": "voteForRecovery",
      "outputs": [],
      "stateMutability": "nonpayable",
      "type": "function"
    },
    {
      "inputs": [
        {
          "internalType": "address payable",
          "name": "withdrawAddress",
          "type": "address"
        },
        {
          "internalType": "uint256",
          "name": "amount",
          "type": "uint256"
        }
      ],
      "name": "withdrawDepositTo",
      "outputs": [],
      "stateMutability": "nonpayable",
      "type": "function"
    },
    {
      "stateMutability": "payable",
      "type": "receive"
    }
  ],
  "bytecode": "0x60c06040523073ffffffffffffffffffffffffffffffffffffffff1660809073ffffffffffffffffffffffffffffffffffffffff168152506000600260146101000a81548160ff0219169083151502179055503480156200005f57600080fd5b5060405162005d7638038062005d76833981810160405281019062000085919062000215565b8073ffffffffffffffffffffffffffffffffffffffff1660a08173ffffffffffffffffffffffffffffffffffffffff1681525050620000c9620000d060201b60201c565b506200032b565b600060019054906101000a900460ff161562000123576040517f08c379a00000000000000000000000000000000000000000000000000000000081526004016200011a90620002ce565b60405180910390fd5b60ff801660008054906101000a900460ff1660ff161015620001955760ff6000806101000a81548160ff021916908360ff1602179055507f7f26b83ff96e1f2b6a682f133852f6798a09c465da95921460cefb384740249860ff6040516200018c91906200030e565b60405180910390a15b565b600080fd5b600073ffffffffffffffffffffffffffffffffffffffff82169050919050565b6000620001c9826200019c565b9050919050565b6000620001dd82620001bc565b9050919050565b620001ef81620001d0565b8114620001fb57600080fd5b50565b6000815190506200020f81620001e4565b92915050565b6000602082840312156200022e576200022d62000197565b5b60006200023e84828501620001fe565b91505092915050565b600082825260208201905092915050565b7f496e697469616c697a61626c653a20636f6e747261637420697320696e69746960008201527f616c697a696e6700000000000000000000000000000000000000000000000000602082015250565b6000620002b660278362000247565b9150620002c38262000258565b604082019050919050565b60006020820190508181036000830152620002e981620002a7565b9050919050565b600060ff82169050919050565b6200030881620002f0565b82525050565b6000602082019050620003256000830184620002fd565b92915050565b60805160a051615a0262000374600039600081816121fa0152613277015260008181610b7601528181610c0401528181610f2e01528181610fbc015261106c0152615a026000f3fe6080604052600436106101845760003560e01c80638975ace3116100d1578063affed0e01161008a578063c33f4ea011610064578063c33f4ea0146105dc578063c399ec8814610605578063c4d66de814610630578063da25a0111461065957610283565b8063affed0e01461055d578063b0d691fe14610588578063b61d27f6146105b357610283565b80638975ace3146104775780638da5cb5b1461048e5780638f2a9099146104b95780638f671849146104e257806395e10dfc1461050b57806399533ef81461053457610283565b80633e8a0bc91161013e5780634d44560d116101185780634d44560d146103de5780634f1ef2861461040757806352d1902d14610423578063701221e11461044e57610283565b80633e8a0bc91461038057806349ef28dc146103ab5780634a58db19146103d457610283565b8062b1a5f01461028857806309e46ff9146102b157806318dfb3c7146102da5780631ad17cf5146103035780633659cfe61461031a5780633a871cdd1461034357610283565b3661028357600073ffffffffffffffffffffffffffffffffffffffff16600360009054906101000a900473ffffffffffffffffffffffffffffffffffffffff1673ffffffffffffffffffffffffffffffffffffffff16141580156101e9575060045434115b1561028157600360009054906101000a900473ffffffffffffffffffffffffffffffffffffffff1673ffffffffffffffffffffffffffffffffffffffff166108fc6064600560009054906101000a900460ff1660ff163461024a9190613aee565b6102549190613b5f565b9081150290604051600060405180830381858888f1935050505015801561027f573d6000803e3d6000fd5b505b005b600080fd5b34801561029457600080fd5b506102af60048036038101906102aa9190613c67565b610684565b005b3480156102bd57600080fd5b506102d860048036038101906102d39190613cf8565b61079a565b005b3480156102e657600080fd5b5061030160048036038101906102fc9190613de0565b610971565b005b34801561030f57600080fd5b50610318610ad3565b005b34801561032657600080fd5b50610341600480360381019061033c9190613cf8565b610b74565b005b34801561034f57600080fd5b5061036a60048036038101906103659190613ebc565b610cfc565b6040516103779190613f3a565b60405180910390f35b34801561038c57600080fd5b50610395610d45565b6040516103a29190613f70565b60405180910390f35b3480156103b757600080fd5b506103d260048036038101906103cd9190613cf8565b610d58565b005b6103dc610e37565b005b3480156103ea57600080fd5b5061040560048036038101906104009190613f8b565b610eac565b005b610421600480360381019061041c919061410c565b610f2c565b005b34801561042f57600080fd5b50610438611068565b6040516104459190614177565b60405180910390f35b34801561045a57600080fd5b5061047560048036038101906104709190614255565b611121565b005b34801561048357600080fd5b5061048c611391565b005b34801561049a57600080fd5b506104a3611431565b6040516104b091906142ad565b60405180910390f35b3480156104c557600080fd5b506104e060048036038101906104db9190613cf8565b611457565b005b3480156104ee57600080fd5b5061050960048036038101906105049190613cf8565b61162e565b005b34801561051757600080fd5b50610532600480360381019061052d9190613cf8565b6118ee565b005b34801561054057600080fd5b5061055b60048036038101906105569190613cf8565b611cbd565b005b34801561056957600080fd5b506105726121c6565b60405161057f9190613f3a565b60405180910390f35b34801561059457600080fd5b5061059d6121f6565b6040516105aa9190614327565b60405180910390f35b3480156105bf57600080fd5b506105da60048036038101906105d59190614398565b61221e565b005b3480156105e857600080fd5b5061060360048036038101906105fe9190613cf8565b6122cb565b005b34801561061157600080fd5b5061061a6124a2565b6040516106279190613f3a565b60405180910390f35b34801561063c57600080fd5b5061065760048036038101906106529190613cf8565b61252a565b005b34801561066557600080fd5b5061066e61266a565b60405161067b91906142ad565b60405180910390f35b61068c612690565b6064600560009054906101000a900460ff1660ff1611156106e2576040517f08c379a00000000000000000000000000000000000000000000000000000000081526004016106d99061448f565b60405180910390fd5b82600360006101000a81548173ffffffffffffffffffffffffffffffffffffffff021916908373ffffffffffffffffffffffffffffffffffffffff1602179055508160048190555080600560006101000a81548160ff021916908360ff1602179055508273ffffffffffffffffffffffffffffffffffffffff167f9ad34a423291d34ee6798e1ca7fb1b64e5a8448b684fe4148d7c7aad7178de01838360405161078d9291906144be565b60405180910390a2505050565b600260149054906101000a900460ff16156107ea576040517f08c379a00000000000000000000000000000000000000000000000000000000081526004016107e190614533565b60405180910390fd5b6107f2612795565b610885600c60020180548060200260200160405190810160405280929190818152602001828054801561087a57602002820191906000526020600020905b8160009054906101000a900473ffffffffffffffffffffffffffffffffffffffff1673ffffffffffffffffffffffffffffffffffffffff1681526020019060010190808311610830575b505050505082612860565b156108c5576040517f08c379a00000000000000000000000000000000000000000000000000000000081526004016108bc9061459f565b60405180910390fd5b600c600201819080600181540180825580915050600190039060005260206000200160009091909190916101000a81548173ffffffffffffffffffffffffffffffffffffffff021916908373ffffffffffffffffffffffffffffffffffffffff1602179055508073ffffffffffffffffffffffffffffffffffffffff167f057705eba26e5b9e39db0ccd7a4d9b8e1ae4709d7d563df8ec14ce882d7a123f60405160405180910390a250565b600260149054906101000a900460ff16156109c1576040517f08c379a00000000000000000000000000000000000000000000000000000000081526004016109b890614533565b60405180910390fd5b6109c9612690565b818190508484905014610a11576040517f08c379a0000000000000000000000000000000000000000000000000000000008152600401610a089061460b565b60405180910390fd5b60005b84849050811015610acc57610ab9858583818110610a3557610a3461462b565b5b9050602002016020810190610a4a9190613cf8565b6000858585818110610a5f57610a5e61462b565b5b9050602002810190610a719190614669565b8080601f016020809104026020016040519081016040528093929190818152602001838380828437600081840152601f19601f820116905080830192505050505050506128e7565b8080610ac4906146cc565b915050610a14565b5050505050565b600260149054906101000a900460ff1615610b23576040517f08c379a0000000000000000000000000000000000000000000000000000000008152600401610b1a90614760565b60405180910390fd5b610b2b612690565b6001600260146101000a81548160ff0219169083151502179055507f035efd240fe1e1555fa98ee89172ded5bbb8554ba37d49996a3692c0486e684460405160405180910390a1565b7f000000000000000000000000000000000000000000000000000000000000000073ffffffffffffffffffffffffffffffffffffffff163073ffffffffffffffffffffffffffffffffffffffff1603610c02576040517f08c379a0000000000000000000000000000000000000000000000000000000008152600401610bf9906147f2565b60405180910390fd5b7f000000000000000000000000000000000000000000000000000000000000000073ffffffffffffffffffffffffffffffffffffffff16610c4161296b565b73ffffffffffffffffffffffffffffffffffffffff1614610c97576040517f08c379a0000000000000000000000000000000000000000000000000000000008152600401610c8e90614884565b60405180910390fd5b610ca0816129c2565b610cf981600067ffffffffffffffff811115610cbf57610cbe613fe1565b5b6040519080825280601f01601f191660200182016040528015610cf15781602001600182028036833780820191505090505b5060006129cd565b50565b6000610d06612b3b565b610d108484612bb2565b90506000848060400190610d249190614669565b905003610d3557610d3484612db7565b5b610d3e82612e65565b9392505050565b600260149054906101000a900460ff1681565b600260149054906101000a900460ff1615610da8576040517f08c379a0000000000000000000000000000000000000000000000000000000008152600401610d9f90614533565b60405180910390fd5b610db0612690565b80600260006101000a81548173ffffffffffffffffffffffffffffffffffffffff021916908373ffffffffffffffffffffffffffffffffffffffff1602179055508073ffffffffffffffffffffffffffffffffffffffff167fd3e2df522c0c2dbbc4b1dc496af7895544b5b418ae5cc8dccf049e10ea1c5b9260405160405180910390a250565b610e3f6121f6565b73ffffffffffffffffffffffffffffffffffffffff1663b760faf934306040518363ffffffff1660e01b8152600401610e7891906142ad565b6000604051808303818588803b158015610e9157600080fd5b505af1158015610ea5573d6000803e3d6000fd5b5050505050565b610eb4612f01565b610ebc6121f6565b73ffffffffffffffffffffffffffffffffffffffff1663205c287883836040518363ffffffff1660e01b8152600401610ef69291906148b3565b600060405180830381600087803b158015610f1057600080fd5b505af1158015610f24573d6000803e3d6000fd5b505050505050565b7f000000000000000000000000000000000000000000000000000000000000000073ffffffffffffffffffffffffffffffffffffffff163073ffffffffffffffffffffffffffffffffffffffff1603610fba576040517f08c379a0000000000000000000000000000000000000000000000000000000008152600401610fb1906147f2565b60405180910390fd5b7f000000000000000000000000000000000000000000000000000000000000000073ffffffffffffffffffffffffffffffffffffffff16610ff961296b565b73ffffffffffffffffffffffffffffffffffffffff161461104f576040517f08c379a000000000000000000000000000000000000000000000000000000000815260040161104690614884565b60405180910390fd5b611058826129c2565b611064828260016129cd565b5050565b60007f000000000000000000000000000000000000000000000000000000000000000073ffffffffffffffffffffffffffffffffffffffff163073ffffffffffffffffffffffffffffffffffffffff16146110f8576040517f08c379a00000000000000000000000000000000000000000000000000000000081526004016110ef9061494e565b60405180910390fd5b7f360894a13ba1a3210667c828492db98dca3e2076cc3735a920a3ca505d382bbc60001b905090565b600260149054906101000a900460ff1615611171576040517f08c379a000000000000000000000000000000000000000000000000000000000815260040161116890614533565b60405180910390fd5b611179612690565b600860009054906101000a900460ff166111c8576040517f08c379a00000000000000000000000000000000000000000000000000000000081526004016111bf906149ba565b60405180910390fd5b600081511161120c576040517f08c379a000000000000000000000000000000000000000000000000000000000815260040161120390614a26565b60405180910390fd5b60005b815181101561133057600073ffffffffffffffffffffffffffffffffffffffff168282815181106112435761124261462b565b5b602002602001015173ffffffffffffffffffffffffffffffffffffffff16036112a1576040517f08c379a000000000000000000000000000000000000000000000000000000000815260040161129890614ab8565b60405180910390fd5b6001600660008484815181106112ba576112b961462b565b5b602002602001015173ffffffffffffffffffffffffffffffffffffffff1673ffffffffffffffffffffffffffffffffffffffff16815260200190815260200160002060006101000a81548160ff02191690831515021790555061131d6007612fc9565b8080611328906146cc565b91505061120f565b506000600860006101000a81548160ff0219169083151502179055508060405161135a9190614b90565b60405180910390207fe5e3f09642bf1fa7c62f005b2d83f2addbe464789b458b9a9b524ef57229085b60405160405180910390a250565b600260149054906101000a900460ff166113e0576040517f08c379a00000000000000000000000000000000000000000000000000000000081526004016113d790614bf3565b60405180910390fd5b6113e8612690565b6000600260146101000a81548160ff0219169083151502179055507f014939f27c7ac2f8fc38badb1814943123a91f8facfd213853d21915168c145360405160405180910390a1565b6001600c9054906101000a900473ffffffffffffffffffffffffffffffffffffffff1681565b600260149054906101000a900460ff16156114a7576040517f08c379a000000000000000000000000000000000000000000000000000000000815260040161149e90614533565b60405180910390fd5b6114af612795565b611542600960020180548060200260200160405190810160405280929190818152602001828054801561153757602002820191906000526020600020905b8160009054906101000a900473ffffffffffffffffffffffffffffffffffffffff1673ffffffffffffffffffffffffffffffffffffffff16815260200190600101908083116114ed575b505050505082612860565b15611582576040517f08c379a000000000000000000000000000000000000000000000000000000000815260040161157990614c5f565b60405180910390fd5b6009600201819080600181540180825580915050600190039060005260206000200160009091909190916101000a81548173ffffffffffffffffffffffffffffffffffffffff021916908373ffffffffffffffffffffffffffffffffffffffff1602179055508073ffffffffffffffffffffffffffffffffffffffff167f7cd207b9b4f21c9b1741810d08ad5a57ef6da5f153a85332dc927384392a5e3360405160405180910390a250565b600260149054906101000a900460ff161561167e576040517f08c379a000000000000000000000000000000000000000000000000000000000815260040161167590614533565b60405180910390fd5b611686612fdf565b600073ffffffffffffffffffffffffffffffffffffffff168173ffffffffffffffffffffffffffffffffffffffff16036116f5576040517f08c379a00000000000000000000000000000000000000000000000000000000081526004016116ec90614cf1565b60405180910390fd5b620151806009600101544261170a9190614d11565b11156117b75780600960000160006101000a81548173ffffffffffffffffffffffffffffffffffffffff021916908373ffffffffffffffffffffffffffffffffffffffff160217905550426009600101819055506009600201600061176f9190613a77565b8073ffffffffffffffffffffffffffffffffffffffff167fdf86338dffade32730ba046610ca976f1d3120d35bfaaee90ddf4de117d7829160405160405180910390a26118eb565b6117c16007613138565b60026009600201805490506117d69190613aee565b106118ea57600960000160009054906101000a900473ffffffffffffffffffffffffffffffffffffffff166001600c6101000a81548173ffffffffffffffffffffffffffffffffffffffff021916908373ffffffffffffffffffffffffffffffffffffffff1602179055506000600960000160006101000a81548173ffffffffffffffffffffffffffffffffffffffff021916908373ffffffffffffffffffffffffffffffffffffffff1602179055506000600960010181905550600960020160006118a29190613a77565b8073ffffffffffffffffffffffffffffffffffffffff167ffcd2de31341801b7fd80895c780aae50c1505fd674ff1b9b9764c56c633434d660405160405180910390a26118eb565b5b50565b600260149054906101000a900460ff161561193e576040517f08c379a000000000000000000000000000000000000000000000000000000000815260040161193590614533565b60405180910390fd5b611946612690565b600660008273ffffffffffffffffffffffffffffffffffffffff1673ffffffffffffffffffffffffffffffffffffffff16815260200190815260200160002060009054906101000a900460ff166119d2576040517f08c379a00000000000000000000000000000000000000000000000000000000081526004016119c990614db7565b60405180910390fd5b6119dc6007613138565b6002600f600201805490506119f19190613aee565b10611a9d5780600f60000160006101000a81548173ffffffffffffffffffffffffffffffffffffffff021916908373ffffffffffffffffffffffffffffffffffffffff16021790555042600f60010181905550600f6002016000611a559190613a77565b8073ffffffffffffffffffffffffffffffffffffffff167faa9ea688fe496ac7cc024c2d87729cbe4e55fcc668be84843cacf0ac7b9d8ca560405160405180910390a2611cba565b62015180600f6001015442611ab29190614d11565b1115611cb957600f60000160009054906101000a900473ffffffffffffffffffffffffffffffffffffffff1673ffffffffffffffffffffffffffffffffffffffff168173ffffffffffffffffffffffffffffffffffffffff1603611c1257600660008273ffffffffffffffffffffffffffffffffffffffff1673ffffffffffffffffffffffffffffffffffffffff16815260200190815260200160002060006101000a81549060ff0219169055611b696007613146565b6000600f60000160006101000a81548173ffffffffffffffffffffffffffffffffffffffff021916908373ffffffffffffffffffffffffffffffffffffffff1602179055506000600f60010181905550600f6002016000611bca9190613a77565b8073ffffffffffffffffffffffffffffffffffffffff167fa14a79af012d1756818f9bd59ccfc9ad185a71df86b9392d9059d9e6faf6d64460405160405180910390a2611cba565b80600f60000160006101000a81548173ffffffffffffffffffffffffffffffffffffffff021916908373ffffffffffffffffffffffffffffffffffffffff16021790555042600f60010181905550600f6002016000611c719190613a77565b8073ffffffffffffffffffffffffffffffffffffffff167faa9ea688fe496ac7cc024c2d87729cbe4e55fcc668be84843cacf0ac7b9d8ca560405160405180910390a2611cba565b5b50565b600260149054906101000a900460ff1615611d0d576040517f08c379a0000000000000000000000000000000000000000000000000000000008152600401611d0490614533565b60405180910390fd5b611d15612690565b600660008273ffffffffffffffffffffffffffffffffffffffff1673ffffffffffffffffffffffffffffffffffffffff16815260200190815260200160002060009054906101000a900460ff1615611da2576040517f08c379a0000000000000000000000000000000000000000000000000000000008152600401611d9990614e49565b60405180910390fd5b6001600c9054906101000a900473ffffffffffffffffffffffffffffffffffffffff1673ffffffffffffffffffffffffffffffffffffffff168173ffffffffffffffffffffffffffffffffffffffff1603611e32576040517f08c379a0000000000000000000000000000000000000000000000000000000008152600401611e2990614edb565b60405180910390fd5b600073ffffffffffffffffffffffffffffffffffffffff168173ffffffffffffffffffffffffffffffffffffffff1603611ea1576040517f08c379a0000000000000000000000000000000000000000000000000000000008152600401611e9890614ab8565b60405180910390fd5b600860009054906101000a900460ff1615611ed2576000600860006101000a81548160ff0219169083151502179055505b611edc6007613138565b6002600c60020180549050611ef19190613aee565b10611f9d5780600c60000160006101000a81548173ffffffffffffffffffffffffffffffffffffffff021916908373ffffffffffffffffffffffffffffffffffffffff16021790555042600c60010181905550600c6002016000611f559190613a77565b8073ffffffffffffffffffffffffffffffffffffffff167fd23e8137cca75125079b4b8f3876ecb40760e3363cfbddbbc7feb2cc8acf58fb60405160405180910390a26121c3565b62015180600c6001015442611fb29190614d11565b11156121c257600c60000160009054906101000a900473ffffffffffffffffffffffffffffffffffffffff1673ffffffffffffffffffffffffffffffffffffffff168173ffffffffffffffffffffffffffffffffffffffff160361211b576001600660008373ffffffffffffffffffffffffffffffffffffffff1673ffffffffffffffffffffffffffffffffffffffff16815260200190815260200160002060006101000a81548160ff0219169083151502179055506120726007612fc9565b6000600c60000160006101000a81548173ffffffffffffffffffffffffffffffffffffffff021916908373ffffffffffffffffffffffffffffffffffffffff1602179055506000600c60010181905550600c60020160006120d39190613a77565b8073ffffffffffffffffffffffffffffffffffffffff167fa636f4a11e2d3ba7f89d042ecb0a6b886716e98cd49d8fd876ee0f73bced42b860405160405180910390a26121c3565b80600c60000160006101000a81548173ffffffffffffffffffffffffffffffffffffffff021916908373ffffffffffffffffffffffffffffffffffffffff16021790555042600c60010181905550600c600201600061217a9190613a77565b8073ffffffffffffffffffffffffffffffffffffffff167fd23e8137cca75125079b4b8f3876ecb40760e3363cfbddbbc7feb2cc8acf58fb60405160405180910390a26121c3565b5b50565b6000600160009054906101000a90046bffffffffffffffffffffffff166bffffffffffffffffffffffff16905090565b60007f0000000000000000000000000000000000000000000000000000000000000000905090565b600260149054906101000a900460ff161561226e576040517f08c379a000000000000000000000000000000000000000000000000000000000815260040161226590614533565b60405180910390fd5b612276612690565b6122c5848484848080601f016020809104026020016040519081016040528093929190818152602001838380828437600081840152601f19601f820116905080830192505050505050506128e7565b50505050565b600260149054906101000a900460ff161561231b576040517f08c379a000000000000000000000000000000000000000000000000000000000815260040161231290614533565b60405180910390fd5b612323612795565b6123b6600f6002018054806020026020016040519081016040528092919081815260200182805480156123ab57602002820191906000526020600020905b8160009054906101000a900473ffffffffffffffffffffffffffffffffffffffff1673ffffffffffffffffffffffffffffffffffffffff1681526020019060010190808311612361575b505050505082612860565b156123f6576040517f08c379a00000000000000000000000000000000000000000000000000000000081526004016123ed9061459f565b60405180910390fd5b600f600201819080600181540180825580915050600190039060005260206000200160009091909190916101000a81548173ffffffffffffffffffffffffffffffffffffffff021916908373ffffffffffffffffffffffffffffffffffffffff1602179055508073ffffffffffffffffffffffffffffffffffffffff167fc6d85b0e2e873ce22b8b16e622ff6406df25386aa1523457f28901e8b7742b8060405160405180910390a250565b60006124ac6121f6565b73ffffffffffffffffffffffffffffffffffffffff166370a08231306040518263ffffffff1660e01b81526004016124e491906142ad565b602060405180830381865afa158015612501573d6000803e3d6000fd5b505050506040513d601f19601f820116820180604052508101906125259190614f10565b905090565b60008060019054906101000a900460ff1615905080801561255b5750600160008054906101000a900460ff1660ff16105b80612588575061256a306131a2565b1580156125875750600160008054906101000a900460ff1660ff16145b5b6125c7576040517f08c379a00000000000000000000000000000000000000000000000000000000081526004016125be90614faf565b60405180910390fd5b60016000806101000a81548160ff021916908360ff1602179055508015612604576001600060016101000a81548160ff0219169083151502179055505b61260d826131c5565b80156126665760008060016101000a81548160ff0219169083151502179055507f7f26b83ff96e1f2b6a682f133852f6798a09c465da95921460cefb3847402498600160405161265d919061500a565b60405180910390a15b5050565b600260009054906101000a900473ffffffffffffffffffffffffffffffffffffffff1681565b3073ffffffffffffffffffffffffffffffffffffffff163373ffffffffffffffffffffffffffffffffffffffff1614806126fc57506126cd6121f6565b73ffffffffffffffffffffffffffffffffffffffff163373ffffffffffffffffffffffffffffffffffffffff16145b8061275457506001600c9054906101000a900473ffffffffffffffffffffffffffffffffffffffff1673ffffffffffffffffffffffffffffffffffffffff163373ffffffffffffffffffffffffffffffffffffffff16145b612793576040517f08c379a000000000000000000000000000000000000000000000000000000000815260040161278a90615071565b60405180910390fd5b565b61279d6121f6565b73ffffffffffffffffffffffffffffffffffffffff163373ffffffffffffffffffffffffffffffffffffffff16148061281f5750600660003373ffffffffffffffffffffffffffffffffffffffff1673ffffffffffffffffffffffffffffffffffffffff16815260200190815260200160002060009054906101000a900460ff165b61285e576040517f08c379a0000000000000000000000000000000000000000000000000000000008152600401612855906150dd565b60405180910390fd5b565b600080600090505b83518110156128db578273ffffffffffffffffffffffffffffffffffffffff1684828151811061289b5761289a61462b565b5b602002602001015173ffffffffffffffffffffffffffffffffffffffff16036128c85760019150506128e1565b80806128d3906146cc565b915050612868565b50600090505b92915050565b6000808473ffffffffffffffffffffffffffffffffffffffff168484604051612910919061516e565b60006040518083038185875af1925050503d806000811461294d576040519150601f19603f3d011682016040523d82523d6000602084013e612952565b606091505b50915091508161296457805160208201fd5b5050505050565b60006129997f360894a13ba1a3210667c828492db98dca3e2076cc3735a920a3ca505d382bbc60001b6132db565b60000160009054906101000a900473ffffffffffffffffffffffffffffffffffffffff16905090565b6129ca612f01565b50565b6129f97f4910fdfa16fed3260ed0e7147f7cc6da11a60208b5b9406d12a635614ffd914360001b6132e5565b60000160009054906101000a900460ff1615612a1d57612a18836132ef565b612b36565b8273ffffffffffffffffffffffffffffffffffffffff166352d1902d6040518163ffffffff1660e01b8152600401602060405180830381865afa925050508015612a8557506040513d601f19601f82011682018060405250810190612a82919061519a565b60015b612ac4576040517f08c379a0000000000000000000000000000000000000000000000000000000008152600401612abb90615239565b60405180910390fd5b7f360894a13ba1a3210667c828492db98dca3e2076cc3735a920a3ca505d382bbc60001b8114612b29576040517f08c379a0000000000000000000000000000000000000000000000000000000008152600401612b20906152cb565b60405180910390fd5b50612b358383836133a8565b5b505050565b612b436121f6565b73ffffffffffffffffffffffffffffffffffffffff163373ffffffffffffffffffffffffffffffffffffffff1614612bb0576040517f08c379a0000000000000000000000000000000000000000000000000000000008152600401612ba790615337565b60405180910390fd5b565b600080612bbe836133d4565b90506000612c2885806101400190612bd69190614669565b8080601f016020809104026020016040519081016040528093929190818152602001838380828437600081840152601f19601f820116905080830192505050505050508361340490919063ffffffff16565b9050600073ffffffffffffffffffffffffffffffffffffffff168173ffffffffffffffffffffffffffffffffffffffff1603612c6957600192505050612db1565b6001600c9054906101000a900473ffffffffffffffffffffffffffffffffffffffff1673ffffffffffffffffffffffffffffffffffffffff168173ffffffffffffffffffffffffffffffffffffffff1603612cc957600092505050612db1565b600660008273ffffffffffffffffffffffffffffffffffffffff1673ffffffffffffffffffffffffffffffffffffffff16815260200190815260200160002060009054906101000a900460ff168015612d285750612d27858261342b565b5b15612d3857600092505050612db1565b600260009054906101000a900473ffffffffffffffffffffffffffffffffffffffff1673ffffffffffffffffffffffffffffffffffffffff168173ffffffffffffffffffffffffffffffffffffffff16148015612d9a5750612d998561358a565b5b15612daa57600092505050612db1565b6001925050505b92915050565b80602001356001600081819054906101000a90046bffffffffffffffffffffffff1680929190612de69061536f565b91906101000a8154816bffffffffffffffffffffffff02191690836bffffffffffffffffffffffff1602179055506bffffffffffffffffffffffff1614612e62576040517f08c379a0000000000000000000000000000000000000000000000000000000008152600401612e59906153ef565b60405180910390fd5b50565b60008114612efe5760003373ffffffffffffffffffffffffffffffffffffffff16827fffffffffffffffffffffffffffffffffffffffffffffffffffffffffffffffff90604051612eb590615435565b600060405180830381858888f193505050503d8060008114612ef3576040519150601f19603f3d011682016040523d82523d6000602084013e612ef8565b606091505b50509050505b50565b6001600c9054906101000a900473ffffffffffffffffffffffffffffffffffffffff1673ffffffffffffffffffffffffffffffffffffffff163373ffffffffffffffffffffffffffffffffffffffff161480612f8857503073ffffffffffffffffffffffffffffffffffffffff163373ffffffffffffffffffffffffffffffffffffffff16145b612fc7576040517f08c379a0000000000000000000000000000000000000000000000000000000008152600401612fbe90615496565b60405180910390fd5b565b6001816000016000828254019250508190555050565b612fe76121f6565b73ffffffffffffffffffffffffffffffffffffffff163373ffffffffffffffffffffffffffffffffffffffff1614806130695750600660003373ffffffffffffffffffffffffffffffffffffffff1673ffffffffffffffffffffffffffffffffffffffff16815260200190815260200160002060009054906101000a900460ff165b8061309f57503073ffffffffffffffffffffffffffffffffffffffff163373ffffffffffffffffffffffffffffffffffffffff16145b806130f757506001600c9054906101000a900473ffffffffffffffffffffffffffffffffffffffff1673ffffffffffffffffffffffffffffffffffffffff163373ffffffffffffffffffffffffffffffffffffffff16145b613136576040517f08c379a000000000000000000000000000000000000000000000000000000000815260040161312d906150dd565b60405180910390fd5b565b600081600001549050919050565b60008160000154905060008111613192576040517f08c379a000000000000000000000000000000000000000000000000000000000815260040161318990615502565b60405180910390fd5b6001810382600001819055505050565b6000808273ffffffffffffffffffffffffffffffffffffffff163b119050919050565b806001600c6101000a81548173ffffffffffffffffffffffffffffffffffffffff021916908373ffffffffffffffffffffffffffffffffffffffff1602179055506000600260146101000a81548160ff0219169083151502179055506001600860006101000a81548160ff0219169083151502179055506001600c9054906101000a900473ffffffffffffffffffffffffffffffffffffffff1673ffffffffffffffffffffffffffffffffffffffff167f000000000000000000000000000000000000000000000000000000000000000073ffffffffffffffffffffffffffffffffffffffff167f47e55c76e7a6f1fd8996a1da8008c1ea29699cca35e7bcd057f2dec313b6e5de60405160405180910390a350565b6000819050919050565b6000819050919050565b6132f8816131a2565b613337576040517f08c379a000000000000000000000000000000000000000000000000000000000815260040161332e90615594565b60405180910390fd5b806133647f360894a13ba1a3210667c828492db98dca3e2076cc3735a920a3ca505d382bbc60001b6132db565b60000160006101000a81548173ffffffffffffffffffffffffffffffffffffffff021916908373ffffffffffffffffffffffffffffffffffffffff16021790555050565b6133b183613617565b6000825111806133be5750805b156133cf576133cd8383613666565b505b505050565b6000816040516020016133e7919061562c565b604051602081830303815290604052805190602001209050919050565b60008060006134138585613693565b91509150613420816136e4565b819250505092915050565b60008083806060019061343e9190614669565b90500361344e5760009050613584565b600080359050638f2a909960e01b7bffffffffffffffffffffffffffffffffffffffffffffffffffffffff1916817bffffffffffffffffffffffffffffffffffffffffffffffffffffffff191614806134eb57506309e46ff960e01b7bffffffffffffffffffffffffffffffffffffffffffffffffffffffff1916817bffffffffffffffffffffffffffffffffffffffffffffffffffffffff1916145b8061353a575063c33f4ea060e01b7bffffffffffffffffffffffffffffffffffffffffffffffffffffffff1916817bffffffffffffffffffffffffffffffffffffffffffffffffffffffff1916145b1561357e57600060043590508073ffffffffffffffffffffffffffffffffffffffff168473ffffffffffffffffffffffffffffffffffffffff161492505050613584565b60009150505b92915050565b60008082806060019061359d9190614669565b9050036135ad5760009050613612565b631ad17cf560e01b7bffffffffffffffffffffffffffffffffffffffffffffffffffffffff19168280606001906135e49190614669565b906135ef9190615696565b7bffffffffffffffffffffffffffffffffffffffffffffffffffffffff19161490505b919050565b613620816132ef565b8073ffffffffffffffffffffffffffffffffffffffff167fbc7cd75a20ee27fd9adebab32041f755214dbc6bffa90cc0225b39da2e5c2d3b60405160405180910390a250565b606061368b83836040518060600160405280602781526020016159a66027913961384a565b905092915050565b60008060418351036136d45760008060006020860151925060408601519150606086015160001a90506136c8878285856138d0565b945094505050506136dd565b60006002915091505b9250929050565b600060048111156136f8576136f76156f5565b5b81600481111561370b5761370a6156f5565b5b03156138475760016004811115613725576137246156f5565b5b816004811115613738576137376156f5565b5b03613778576040517f08c379a000000000000000000000000000000000000000000000000000000000815260040161376f90615770565b60405180910390fd5b6002600481111561378c5761378b6156f5565b5b81600481111561379f5761379e6156f5565b5b036137df576040517f08c379a00000000000000000000000000000000000000000000000000000000081526004016137d6906157dc565b60405180910390fd5b600360048111156137f3576137f26156f5565b5b816004811115613806576138056156f5565b5b03613846576040517f08c379a000000000000000000000000000000000000000000000000000000000815260040161383d9061586e565b60405180910390fd5b5b50565b60606000808573ffffffffffffffffffffffffffffffffffffffff1685604051613874919061516e565b600060405180830381855af49150503d80600081146138af576040519150601f19603f3d011682016040523d82523d6000602084013e6138b4565b606091505b50915091506138c5868383876139b2565b925050509392505050565b6000807f7fffffffffffffffffffffffffffffff5d576e7357a4501ddfe92f46681b20a08360001c111561390b5760006003915091506139a9565b600060018787878760405160008152602001604052604051613930949392919061588e565b6020604051602081039080840390855afa158015613952573d6000803e3d6000fd5b505050602060405103519050600073ffffffffffffffffffffffffffffffffffffffff168173ffffffffffffffffffffffffffffffffffffffff16036139a0576000600192509250506139a9565b80600092509250505b94509492505050565b60608315613a14576000835103613a0c576139cc856131a2565b613a0b576040517f08c379a0000000000000000000000000000000000000000000000000000000008152600401613a029061591f565b60405180910390fd5b5b829050613a1f565b613a1e8383613a27565b5b949350505050565b600082511115613a3a5781518083602001fd5b806040517f08c379a0000000000000000000000000000000000000000000000000000000008152600401613a6e9190615983565b60405180910390fd5b5080546000825590600052602060002090810190613a959190613a98565b50565b5b80821115613ab1576000816000905550600101613a99565b5090565b6000819050919050565b7f4e487b7100000000000000000000000000000000000000000000000000000000600052601160045260246000fd5b6000613af982613ab5565b9150613b0483613ab5565b9250828202613b1281613ab5565b91508282048414831517613b2957613b28613abf565b5b5092915050565b7f4e487b7100000000000000000000000000000000000000000000000000000000600052601260045260246000fd5b6000613b6a82613ab5565b9150613b7583613ab5565b925082613b8557613b84613b30565b5b828204905092915050565b6000604051905090565b600080fd5b600080fd5b600073ffffffffffffffffffffffffffffffffffffffff82169050919050565b6000613bcf82613ba4565b9050919050565b613bdf81613bc4565b8114613bea57600080fd5b50565b600081359050613bfc81613bd6565b92915050565b613c0b81613ab5565b8114613c1657600080fd5b50565b600081359050613c2881613c02565b92915050565b600060ff82169050919050565b613c4481613c2e565b8114613c4f57600080fd5b50565b600081359050613c6181613c3b565b92915050565b600080600060608486031215613c8057613c7f613b9a565b5b6000613c8e86828701613bed565b9350506020613c9f86828701613c19565b9250506040613cb086828701613c52565b9150509250925092565b6000613cc582613ba4565b9050919050565b613cd581613cba565b8114613ce057600080fd5b50565b600081359050613cf281613ccc565b92915050565b600060208284031215613d0e57613d0d613b9a565b5b6000613d1c84828501613ce3565b91505092915050565b600080fd5b600080fd5b600080fd5b60008083601f840112613d4a57613d49613d25565b5b8235905067ffffffffffffffff811115613d6757613d66613d2a565b5b602083019150836020820283011115613d8357613d82613d2f565b5b9250929050565b60008083601f840112613da057613d9f613d25565b5b8235905067ffffffffffffffff811115613dbd57613dbc613d2a565b5b602083019150836020820283011115613dd957613dd8613d2f565b5b9250929050565b60008060008060408587031215613dfa57613df9613b9a565b5b600085013567ffffffffffffffff811115613e1857613e17613b9f565b5b613e2487828801613d34565b9450945050602085013567ffffffffffffffff811115613e4757613e46613b9f565b5b613e5387828801613d8a565b925092505092959194509250565b600080fd5b60006101608284031215613e7d57613e7c613e61565b5b81905092915050565b6000819050919050565b613e9981613e86565b8114613ea457600080fd5b50565b600081359050613eb681613e90565b92915050565b600080600060608486031215613ed557613ed4613b9a565b5b600084013567ffffffffffffffff811115613ef357613ef2613b9f565b5b613eff86828701613e66565b9350506020613f1086828701613ea7565b9250506040613f2186828701613c19565b9150509250925092565b613f3481613ab5565b82525050565b6000602082019050613f4f6000830184613f2b565b92915050565b60008115159050919050565b613f6a81613f55565b82525050565b6000602082019050613f856000830184613f61565b92915050565b60008060408385031215613fa257613fa1613b9a565b5b6000613fb085828601613bed565b9250506020613fc185828601613c19565b9150509250929050565b600080fd5b6000601f19601f8301169050919050565b7f4e487b7100000000000000000000000000000000000000000000000000000000600052604160045260246000fd5b61401982613fd0565b810181811067ffffffffffffffff8211171561403857614037613fe1565b5b80604052505050565b600061404b613b90565b90506140578282614010565b919050565b600067ffffffffffffffff82111561407757614076613fe1565b5b61408082613fd0565b9050602081019050919050565b82818337600083830152505050565b60006140af6140aa8461405c565b614041565b9050828152602081018484840111156140cb576140ca613fcb565b5b6140d684828561408d565b509392505050565b600082601f8301126140f3576140f2613d25565b5b813561410384826020860161409c565b91505092915050565b6000806040838503121561412357614122613b9a565b5b600061413185828601613ce3565b925050602083013567ffffffffffffffff81111561415257614151613b9f565b5b61415e858286016140de565b9150509250929050565b61417181613e86565b82525050565b600060208201905061418c6000830184614168565b92915050565b600067ffffffffffffffff8211156141ad576141ac613fe1565b5b602082029050602081019050919050565b60006141d16141cc84614192565b614041565b905080838252602082019050602084028301858111156141f4576141f3613d2f565b5b835b8181101561421d57806142098882613ce3565b8452602084019350506020810190506141f6565b5050509392505050565b600082601f83011261423c5761423b613d25565b5b813561424c8482602086016141be565b91505092915050565b60006020828403121561426b5761426a613b9a565b5b600082013567ffffffffffffffff81111561428957614288613b9f565b5b61429584828501614227565b91505092915050565b6142a781613cba565b82525050565b60006020820190506142c2600083018461429e565b92915050565b6000819050919050565b60006142ed6142e86142e384613ba4565b6142c8565b613ba4565b9050919050565b60006142ff826142d2565b9050919050565b6000614311826142f4565b9050919050565b61432181614306565b82525050565b600060208201905061433c6000830184614318565b92915050565b60008083601f84011261435857614357613d25565b5b8235905067ffffffffffffffff81111561437557614374613d2a565b5b60208301915083600182028301111561439157614390613d2f565b5b9250929050565b600080600080606085870312156143b2576143b1613b9a565b5b60006143c087828801613ce3565b94505060206143d187828801613c19565b935050604085013567ffffffffffffffff8111156143f2576143f1613b9f565b5b6143fe87828801614342565b925092505092959194509250565b600082825260208201905092915050565b7f536176696e67732070657263656e74616765206d75737420626520626574776560008201527f656e203020616e64203130300000000000000000000000000000000000000000602082015250565b6000614479602c8361440c565b91506144848261441d565b604082019050919050565b600060208201905081810360008301526144a88161446c565b9050919050565b6144b881613c2e565b82525050565b60006040820190506144d36000830185613f2b565b6144e060208301846144af565b9392505050565b7f57616c6c657420696e206c6f636b646f776e0000000000000000000000000000600082015250565b600061451d60128361440c565b9150614528826144e7565b602082019050919050565b6000602082019050818103600083015261454c81614510565b9050919050565b7f566f74657220616c7265616479207665746f6564000000000000000000000000600082015250565b600061458960148361440c565b915061459482614553565b602082019050919050565b600060208201905081810360008301526145b88161457c565b9050919050565b7f77726f6e67206172726179206c656e6774687300000000000000000000000000600082015250565b60006145f560138361440c565b9150614600826145bf565b602082019050919050565b60006020820190508181036000830152614624816145e8565b9050919050565b7f4e487b7100000000000000000000000000000000000000000000000000000000600052603260045260246000fd5b600080fd5b600080fd5b600080fd5b600080833560016020038436030381126146865761468561465a565b5b80840192508235915067ffffffffffffffff8211156146a8576146a761465f565b5b6020830192506001820236038313156146c4576146c3614664565b5b509250929050565b60006146d782613ab5565b91507fffffffffffffffffffffffffffffffffffffffffffffffffffffffffffffffff820361470957614708613abf565b5b600182019050919050565b7f57616c6c657420616c726561647920696e206c6f636b646f776e000000000000600082015250565b600061474a601a8361440c565b915061475582614714565b602082019050919050565b600060208201905081810360008301526147798161473d565b9050919050565b7f46756e6374696f6e206d7573742062652063616c6c6564207468726f7567682060008201527f64656c656761746563616c6c0000000000000000000000000000000000000000602082015250565b60006147dc602c8361440c565b91506147e782614780565b604082019050919050565b6000602082019050818103600083015261480b816147cf565b9050919050565b7f46756e6374696f6e206d7573742062652063616c6c6564207468726f7567682060008201527f6163746976652070726f78790000000000000000000000000000000000000000602082015250565b600061486e602c8361440c565b915061487982614812565b604082019050919050565b6000602082019050818103600083015261489d81614861565b9050919050565b6148ad81613bc4565b82525050565b60006040820190506148c860008301856148a4565b6148d56020830184613f2b565b9392505050565b7f555550535570677261646561626c653a206d757374206e6f742062652063616c60008201527f6c6564207468726f7567682064656c656761746563616c6c0000000000000000602082015250565b600061493860388361440c565b9150614943826148dc565b604082019050919050565b600060208201905081810360008301526149678161492b565b9050919050565b7f566f7465727320616c726561647920696e697469616c697a6564000000000000600082015250565b60006149a4601a8361440c565b91506149af8261496e565b602082019050919050565b600060208201905081810360008301526149d381614997565b9050919050565b7f68747470733a2f2f796f7574752e62652f4a716444725975656645513f743d32600082015250565b6000614a1060208361440c565b9150614a1b826149da565b602082019050919050565b60006020820190508181036000830152614a3f81614a03565b9050919050565b7f5a65726f2061646472657373206973206e6f7420612076616c696420766f746560008201527f7220616464726573730000000000000000000000000000000000000000000000602082015250565b6000614aa260298361440c565b9150614aad82614a46565b604082019050919050565b60006020820190508181036000830152614ad181614a95565b9050919050565b600081519050919050565b600081905092915050565b6000819050602082019050919050565b614b0781613cba565b82525050565b6000614b198383614afe565b60208301905092915050565b6000602082019050919050565b6000614b3d82614ad8565b614b478185614ae3565b9350614b5283614aee565b8060005b83811015614b83578151614b6a8882614b0d565b9750614b7583614b25565b925050600181019050614b56565b5085935050505092915050565b6000614b9c8284614b32565b915081905092915050565b7f57616c6c6574206e6f7420696e206c6f636b646f776e00000000000000000000600082015250565b6000614bdd60168361440c565b9150614be882614ba7565b602082019050919050565b60006020820190508181036000830152614c0c81614bd0565b9050919050565b7f566f74657220616c726561647920766f74656400000000000000000000000000600082015250565b6000614c4960138361440c565b9150614c5482614c13565b602082019050919050565b60006020820190508181036000830152614c7881614c3c565b9050919050565b7f5265636f7665727920746f207a65726f2061646472657373206e6f7420616c6c60008201527f6f77656400000000000000000000000000000000000000000000000000000000602082015250565b6000614cdb60248361440c565b9150614ce682614c7f565b604082019050919050565b60006020820190508181036000830152614d0a81614cce565b9050919050565b6000614d1c82613ab5565b9150614d2783613ab5565b9250828203905081811115614d3f57614d3e613abf565b5b92915050565b7f41646472657373206973206e6f742061207265676973746572656420766f746560008201527f7200000000000000000000000000000000000000000000000000000000000000602082015250565b6000614da160218361440c565b9150614dac82614d45565b604082019050919050565b60006020820190508181036000830152614dd081614d94565b9050919050565b7f5265636f7665727920766f74657220616c72656164792072656769737465726560008201527f6400000000000000000000000000000000000000000000000000000000000000602082015250565b6000614e3360218361440c565b9150614e3e82614dd7565b604082019050919050565b60006020820190508181036000830152614e6281614e26565b9050919050565b7f57616c6c6574206f776e65722063616e6e6f742062652061207265636f76657260008201527f7920766f74657200000000000000000000000000000000000000000000000000602082015250565b6000614ec560278361440c565b9150614ed082614e69565b604082019050919050565b60006020820190508181036000830152614ef481614eb8565b9050919050565b600081519050614f0a81613c02565b92915050565b600060208284031215614f2657614f25613b9a565b5b6000614f3484828501614efb565b91505092915050565b7f496e697469616c697a61626c653a20636f6e747261637420697320616c72656160008201527f647920696e697469616c697a6564000000000000000000000000000000000000602082015250565b6000614f99602e8361440c565b9150614fa482614f3d565b604082019050919050565b60006020820190508181036000830152614fc881614f8c565b9050919050565b6000819050919050565b6000614ff4614fef614fea84614fcf565b6142c8565b613c2e565b9050919050565b61500481614fd9565b82525050565b600060208201905061501f6000830184614ffb565b92915050565b7f6163636f756e743a206e6f74204f776e6572206f7220456e747279506f696e74600082015250565b600061505b60208361440c565b915061506682615025565b602082019050919050565b6000602082019050818103600083015261508a8161504e565b9050919050565b7f6163636f756e743a206e6f7420566f746572206f7220456e747279506f696e74600082015250565b60006150c760208361440c565b91506150d282615091565b602082019050919050565b600060208201905081810360008301526150f6816150ba565b9050919050565b600081519050919050565b600081905092915050565b60005b83811015615131578082015181840152602081019050615116565b60008484015250505050565b6000615148826150fd565b6151528185615108565b9350615162818560208601615113565b80840191505092915050565b600061517a828461513d565b915081905092915050565b60008151905061519481613e90565b92915050565b6000602082840312156151b0576151af613b9a565b5b60006151be84828501615185565b91505092915050565b7f45524331393637557067726164653a206e657720696d706c656d656e7461746960008201527f6f6e206973206e6f742055555053000000000000000000000000000000000000602082015250565b6000615223602e8361440c565b915061522e826151c7565b604082019050919050565b6000602082019050818103600083015261525281615216565b9050919050565b7f45524331393637557067726164653a20756e737570706f727465642070726f7860008201527f6961626c65555549440000000000000000000000000000000000000000000000602082015250565b60006152b560298361440c565b91506152c082615259565b604082019050919050565b600060208201905081810360008301526152e4816152a8565b9050919050565b7f6163636f756e743a206e6f742066726f6d20456e747279506f696e7400000000600082015250565b6000615321601c8361440c565b915061532c826152eb565b602082019050919050565b6000602082019050818103600083015261535081615314565b9050919050565b60006bffffffffffffffffffffffff82169050919050565b600061537a82615357565b91506bffffffffffffffffffffffff820361539857615397613abf565b5b600182019050919050565b7f6163636f756e743a20696e76616c6964206e6f6e636500000000000000000000600082015250565b60006153d960168361440c565b91506153e4826153a3565b602082019050919050565b60006020820190508181036000830152615408816153cc565b9050919050565b50565b600061541f600083615108565b915061542a8261540f565b600082019050919050565b600061544082615412565b9150819050919050565b7f6f6e6c79206f776e657200000000000000000000000000000000000000000000600082015250565b6000615480600a8361440c565b915061548b8261544a565b602082019050919050565b600060208201905081810360008301526154af81615473565b9050919050565b7f436f756e7465723a2064656372656d656e74206f766572666c6f770000000000600082015250565b60006154ec601b8361440c565b91506154f7826154b6565b602082019050919050565b6000602082019050818103600083015261551b816154df565b9050919050565b7f455243313936373a206e657720696d706c656d656e746174696f6e206973206e60008201527f6f74206120636f6e747261637400000000000000000000000000000000000000602082015250565b600061557e602d8361440c565b915061558982615522565b604082019050919050565b600060208201905081810360008301526155ad81615571565b9050919050565b600081905092915050565b7f19457468657265756d205369676e6564204d6573736167653a0a333200000000600082015250565b60006155f5601c836155b4565b9150615600826155bf565b601c82019050919050565b6000819050919050565b61562661562182613e86565b61560b565b82525050565b6000615637826155e8565b91506156438284615615565b60208201915081905092915050565b600082905092915050565b60007fffffffff0000000000000000000000000000000000000000000000000000000082169050919050565b600082821b905092915050565b60006156a28383615652565b826156ad813561565d565b925060048210156156ed576156e87fffffffff0000000000000000000000000000000000000000000000000000000083600403600802615689565b831692505b505092915050565b7f4e487b7100000000000000000000000000000000000000000000000000000000600052602160045260246000fd5b7f45434453413a20696e76616c6964207369676e61747572650000000000000000600082015250565b600061575a60188361440c565b915061576582615724565b602082019050919050565b600060208201905081810360008301526157898161574d565b9050919050565b7f45434453413a20696e76616c6964207369676e6174757265206c656e67746800600082015250565b60006157c6601f8361440c565b91506157d182615790565b602082019050919050565b600060208201905081810360008301526157f5816157b9565b9050919050565b7f45434453413a20696e76616c6964207369676e6174757265202773272076616c60008201527f7565000000000000000000000000000000000000000000000000000000000000602082015250565b600061585860228361440c565b9150615863826157fc565b604082019050919050565b600060208201905081810360008301526158878161584b565b9050919050565b60006080820190506158a36000830187614168565b6158b060208301866144af565b6158bd6040830185614168565b6158ca6060830184614168565b95945050505050565b7f416464726573733a2063616c6c20746f206e6f6e2d636f6e7472616374000000600082015250565b6000615909601d8361440c565b9150615914826158d3565b602082019050919050565b60006020820190508181036000830152615938816158fc565b9050919050565b600081519050919050565b60006159558261593f565b61595f818561440c565b935061596f818560208601615113565b61597881613fd0565b840191505092915050565b6000602082019050818103600083015261599d818461594a565b90509291505056fe416464726573733a206c6f772d6c6576656c2064656c65676174652063616c6c206661696c6564a2646970667358221220c79892ca8b7fa72c31a036ff6af29c5d196086a50508562810cee20e2bc52b6764736f6c63430008120033",
  "linkReferences": {},
  "deployedLinkReferences": {}
}